:020000021000EC
:108000000040002085D40100CDD40100CFD4010070
:108010000000000000000000000000000000000060
:10802000000000000000000000000000D1D40100AA
:108030000000000000000000D3D40100D5D40100EE
:10804000D7D40100D7D4010001A20100A5A40100EA
:10805000D7D4010000000000D7D40100B1A5010071
:10806000D7D40100859E0100CD9D0100D7D4010029
:10807000D7D40100D7D40100D7D40100D7D4010050
:10808000D7D40100ADCB0100D7D40100D7D4010073
:108090008DCC0100F9A7010051D40100D7D4010013
:1080A000D7D40100D7D40100000000000000000078
:1080B00000000000000000000000000000000000C0
:1080C00010B5064C2378002B07D1054B002B02D0AE
:1080D000044800E000BF0123237010BDA820002049
:1080E00000000000FC370200084B10B5002B03D045
:1080F0000749084800E000BF07480368002B00D18B
:1081000010BD064B002BFBD09847F9E7000000009C
:10811000AC200020FC370200A82000200000000056
:10812000164B002B00D1144B9D46402292029A1A06
:10813000924600218B460F461348144A121A00F04B
:1081400067F80F4B002B00D098470E4B002B00D048
:1081500098470020002104000D000D48002802D09F
:108160000C4800E000BF00F02DF82000290000F0CE
:1081700009F900F011F8C046000008000040002096
:108180000000000000000000A8200020542800206B
:108190000000000000000000084B10B50400002B98
:1081A00002D0002100E000BF054B1868836A002B55
:1081B00000D09847200000F033F8C04600000000CF
:1081C000A41F02000E4B70B500251E000D4CE41AD2
:1081D000A410A54204D0AB00F35898470135F8E746
:1081E00009F0D2FE084B00251E00084CE41AA4102A
:1081F000A54204D0AB00F35898470135F8E770BDAD
:10820000A0200020A0200020A0200020A4200020EA
:1082100003008218934202D019700133FAE77047C5
:10822000FEE7C0461D4B1B78012B00D070471C4B4E
:108230001B681B07FAD1F0221A4B1B68134018D198
:10824000194B1B6813421CD0154B1B681B07EDD143
:10825000F022144B1B681340402BE7D1124B1B68D4
:108260001342E3D1C12380220121DB00D205D1508A
:10827000DCE7102B01D0302BEAD10B4B1B681342EB
:10828000E6D10A4A0A4B1A6080220A4B12021A608F
:10829000024B1B78012BD7D0C8E7C046E00F00F097
:1082A000E40F00F0E80F00F0EC0F00F0DFFF07C074
:1082B00004050040186C004082B00190019B002B27
:1082C00014D0019B0A48013B01930138C046C046C7
:1082D000C046C046C046C046C046C046C046C0466E
:1082E000C046C046F1D1019B002BEAD102B07047D5
:1082F000E703000010B5194B1988194BCB18312B27
:1083000024D9184B994215D8174809F0B9FA012217
:10831000A021164BC9051A70154BCB589B0D1A425C
:108320000FD18022A123D203DB00CA501422114BAB
:108330001A7010BD104809F0A3FA00220B4B1A70F6
:10834000F7E780220D4BD203CA50EFE70C4809F043
:1083500097FA0022054B1A70EBE7C046CE250020A5
:10836000E5FBFFFF4C0400009C200200EA260020F1
:10837000040500001A280020802002000C050000DF
:1083800060200200F0B55F464D4644465646112334
:10839000F0B40024C94A85B01370C94A103B137069
:1083A000C84B1C70C84B1C7001F06CFF01F0C2FC84
:1083B00001F0DAFD02F00EF902F0ACF864210120C0
:1083C00004F012FB02F0FEF902F03EFC02F0E4F8C9
:1083D00001F0CCFABD4B1C70BD4B1C70FFF78AFF3F
:1083E000FA2378229B000093FF32BA4B1921BA4836
:1083F00009F046FAB94809F043FA00239A46B84B07
:10840000B84F9946B84BB94C98460123B84D9B4696
:1084100003E001F09DFD00283AD1AC4B1B78002B06
:1084200069D1AB4B1B780393002B64D18222B14BF3
:1084300052009B5A002BECD0AE4801F08BFF5A46FD
:108440009F4B06001A7001006822AB4809F018FA29
:10845000682E7CD04B461B78012B6AD0002B00D1B4
:10846000A9E0022B60D13B78013BDAB24346210000
:10847000187801F001FA3B78E318013B1B7883423E
:1084800047D000234A46137001F062FD0028C4D093
:1084900001239C46E2441421504605F043FF002985
:1084A00001D101F0C5FBC821504605F03BFF002972
:1084B0005CD0142901D1FFF71DFF78215046FF3110
:1084C00005F030FF00296ED17D4B1B78002B50D07A
:1084D000A0221E207A4BD20519707A4B1970874B57
:1084E000D050794B197000F055FF01F037FD774BF4
:1084F0001B78002B95D0824809F0C2F96420FFF761
:10850000DBFEBFF34F8F7F4A7F4BDA60BFF34F8FA5
:10851000FEE743461B78703BDBB21B2B00D907E11B
:108520007A4A9B00D3589F466A464B46127B1A7084
:108530006FE73A78531CA654754ADBB212783B7049
:108540009A4200D965E7022249460A708CE7682002
:1085500001F0F2FD6F4809F093F94B46039E682045
:108560001E7001F0E9FD4B461E7052E702F014F850
:10857000A3E71423514A13705A46524B1A70524BB8
:108580001A701921504605F0CDFE0029ABD1A02369
:10859000614ADB0599588022D205114208D1A121F8
:1085A000C9005A509FE7474B1B78002B9BD0E8E748
:1085B00052495A5097E73300703BDBB21B2B29D846
:1085C000564ADA4013005A469A4318D0EF233340F4
:1085D000802B39D0932E37D033007F33DBB2162B6C
:1085E00000D916E74E4ADA4013005A469A4300D0A3
:1085F0000FE743461E700923454A137004E04346C3
:108600001E700223424A137000235A463B704B46A9
:108610001A70FEE6922ED9D1434603221E703C4BBF
:108620001A70F1E70022EB89A256D318EB8128E7F4
:108630000022AB89A256D318AB8122E700226B89B6
:10864000A256D3186B811CE743461E700523304A9F
:108650001370D9E700222B89A256D3182B8110E77B
:108660000022AB88A256D318AB800AE70022EB8821
:10867000A256D318EB8004E700222B88A256D31809
:108680002B80FEE600226B88A256D3186B80F8E69A
:108690002378244A137063785370A3789370E37837
:1086A000D370EEE6054B204A1B78044913701F4A2D
:1086B000237813702F220A70EBE7C0461A28002097
:1086C000B4240020C825002092230020292800205F
:1086D000EA260020DC050000EC2002004C2102000C
:1086E000C5200020C6200020C7200020D82500205B
:1086F000F426002098230020182002000C0500001A
:10870000642102000400FA0500ED00E0A81F020049
:10871000C42000203C2002000405000003007C0F60
:1087200001004900A4240020C225002028280020A0
:108730000C4809F0A5F843460B48197809F0A0F851
:108740003B780026002B08D0A15D074809F098F877
:1087500001363B78F6B2B342F6D8044809F090F8F7
:108760008FE6C0464C200200582002007021020013
:1087700070B5840024180500900080184000DB00CC
:10878000001986B0C01A02900A20404206005043E9
:108790004E438A00511800194900F618C01ACB1828
:1087A00036191C190396059400260024049002AB88
:1087B0001859002843DB08F075FB04F08FFF05F023
:1087C0005DFF02AB80B218510434102CEFD13B4A4C
:1087D0000023D15E029BCB1802930220115E039806
:1087E0008446614403910420115E049884466144E8
:1087F00004910621525E05998C46624401910592CE
:10880000092D1ED90A2D49D0C72B2EDD2C4A9342A3
:1088100001DDFA239B00039AC72A2ADCC8220392AF
:10882000049AC72A2EDCC8220492059AC72A32DD90
:1088300023498A4209DDFA229200059205E01E5181
:10884000C2E700230393049305931E4A1380039BFE
:1088500001936B469B885380049B01936B469B88D6
:108860009380059BD38006B070BD039AC823C72AA6
:10887000D4DD13498A42D3DDFA2292000392049A8E
:10888000C72AD0DD0E498A42CFDDFA229200049237
:10889000059AC72ACCDCC8220592D6E7FA22002323
:1088A0000749920002A8C0580190884201DD02A841
:1088B000C2500433102BF5D1029BC6E7F4260020EA
:1088C000E70300001C280020F8B55F4656464D46D9
:1088D0004446F0B42E4B2F4F1A78002A42D12E4B2B
:1088E0002E4E99462E4B9A462E4B984604F06CF825
:1088F000002801D004F024F82B4B2C4A00241B5FE5
:108900002B4C9B4691689360A368506865686360D0
:108910003B6810605843534651605A461B682560B7
:108920005343C7184B461B68594343461A68781887
:108930006A4333688018A2685343C0181D4B1860FF
:1089400008F0B0FA00221C4B07F088FC08F074FA1B
:108950001A4B00B21880A0603CBC90469946A246D3
:10896000AB46F8BD0C49164A8946484615493A6057
:1089700001600B49094E0A600A4A8A469046414600
:10898000114A0A60114A326000221A70AEE7C046EE
:1089900066200020D020002018210020E8200020A0
:1089A00010210020F420002026280020D4200020C0
:1089B000FC200020882300200000103FCA25002052
:1089C00051040000A208000095E5FFFF26490000C1
:1089D000F0B544465F4656464D46F0B4824C85B0ED
:1089E0002378002B00D0E0E0804B814D9B46814BEB
:1089F000814C9946814B9846814B9A46814B039313
:108A000003F0E2FF002801D003F09AFF5B461B68E9
:108A10001E007D4B0020185E08F044FA00227B4BBC
:108A200007F01CFC08F008FA831B494620681C006C
:108A30000090444308680293019608F033FA060058
:108A4000A0130F0008F02EFA02000B0030003900CE
:108A500006F0B4FC08F0F0F96D4B04000021585EFC
:108A600008F020FA0022694B07F0F8FB08F0E4F95F
:108A70005146261A096830008A4605F057FC4946D7
:108A8000241A0C600399009F096830008946390058
:108A900005F04CFC08F006FA00225C4B07F0DEFB08
:108AA00008F0CAF9494605F041FC019B9C465B462B
:108AB00060441860200008F0F5F90022554B07F0DB
:108AC000CDFB08F0B9F9544B1880029808F0EAF988
:108AD0000022504B07F0C2FB08F0AEF94F4B188054
:108AE0002B689B464E4B0020185E08F0DBF90022F5
:108AF000464B07F0B3FB08F09FF95B46C41A3800F9
:108B000060438013009708F0CDF9434606001868CB
:108B10000F0008F0C7F902000B003000390006F022
:108B20004DFC08F089F93F4B07000020185E08F063
:108B3000B9F90022354B07F091FB08F07DF93E1A98
:108B40005146300005F0F2FB43463F1A1F60009982
:108B5000300005F0EBFB08F0A5F900222B4B07F0E5
:108B60007DFB08F069F9494605F0E0FB58442860B0
:108B7000380008F097F90022264B07F06FFB08F049
:108B80005BF9294B1880200008F08CF90022214B5A
:108B900007F064FB08F050F9244B188005B03CBC8A
:108BA00090469946A246AB46F0BD6421002003F0F2
:108BB0001BFF00230D4A23701360934684220E4C42
:108BC0000B4D22600B4A2B60136091460B4A1360D9
:108BD0000B4B90469A46802352461360094B1A006D
:108BE0000393134B13600BE765200020F82000204F
:108BF00008210020E4200020C82000200C210020B3
:108C0000EC200020F0200020EE2600200000D040C4
:108C1000862300200000103FC62500202A280020BF
:108C2000C4250020C0250020CC25002024280020B9
:108C300000350C00002330B5344A354CD35683B090
:108C400019022180012151569BB209026180022143
:108C500051560902A180D27852B21202E2801E2B34
:108C60000FD800232B4A0021138053809380D38098
:108C70000122009301922848002208F001FE03B06F
:108C800030BD03F0A1FE002839D124490D890135FA
:108C90006DB2002D36DD322D02DD312332250B8100
:108CA00003200622A35EDA170240D31806228A5E4A
:108CB0009B1092009A181A4B0021595E194B002004
:108CC0001B5ECB1A0721D2186A43D3170B409B189F
:108CD000DB100421625E0220215E2088FFF748FD40
:108CE0000C480422835E0221425E0024015F01954C
:108CF0000624005F0090084808F0C2FDBFE703F0BB
:108D000013FDC2E7002301250B81C9E7A42400203D
:108D1000D02500201C280020F0210200F42600208D
:108D20002628002084230020F0B557464E464546AD
:108D30000023E0B4012402250326644A84B0D356FC
:108D40001457555796571F02DBB224022D023602E4
:108D50001E2B11D800235E4A00211380538093807C
:108D6000D3805C480093002208F08AFD04B01CBC4C
:108D700090469946A246F0BD03F026FE002800D09A
:108D800092E055490B8901335BB2002B00DC8EE089
:108D9000322B02DD31230B8101339A464B8901339B
:108DA0005BB2002B00DC8CE0322B02DD31234B81E7
:108DB000013398468B8901335BB2002B7CDD322B6B
:108DC00002DD31238B810133994606228B5EF6103A
:108DD0009B009E19414BAD1000229A5E404B3F0410
:108DE00000201B5ED31A0322F618534694465E43B6
:108DF000F317134004200A5E3A489200AA1A00258D
:108E0000405F394D9B190026AD5F9B10451B551BDC
:108E1000424660465543EA17024052199010334AC1
:108E20000025525F324D0026AD5F521B4D466A430E
:108E3000D50FAA18A51002240C5F5210A4008218A6
:108E4000281B2C4C2C4D0021645E00216D5E414698
:108E5000641B041B4C436146E01701400C19274971
:108E6000A41000254D5F26490020085E4946281AB7
:108E70004843C10F08184010211A380CFFF778FC3E
:108E800013480422835E0221425E0024015F4C46A7
:108E9000039444460294544601940624005F0090D3
:108EA000184808F0EDFC61E703F03EFC69E7002399
:108EB0000B8101339A4671E700238B810133994678
:108EC00083E700234B810133984673E7A4240020F5
:108ED0001C28002018220200F4260020262800204A
:108EE00084230020AC240020F0260020C42500208C
:108EF00004270020A22400209E240020EE2600202B
:108F0000BE25002038220200F0B54D465F4644469B
:108F100056460023F0B4012402256C4A85B0D3568E
:108F200014575557D278190252B21202DBB2894651
:108F300024022D0293461E2B12D80023644A0021DE
:108F4000138053809380D38062480093002208F0FE
:108F500097FC05B03CBC90469946A246AB46F0BD96
:108F60005D4B9A461B8901335BB2002B00DC91E01C
:108F7000322B03DD31235246138101339846534689
:108F80005E89013676B2002E00DC8FE0322E03DDE2
:108F9000312352463226538153469F8901377FB28F
:108FA000002F00DC8DE0322F03DD312352463227C3
:108FB0009381FFF789FCFFF70BFD534606229A5E6B
:108FC000AD1093005A46D2109A18444BA4100021B9
:108FD000595E434B00201B5ECB1AD2184346032137
:108FE0005A43D3170B409B1852460420125E3D484B
:108FF0009200AA1A0025405F3B4D9B109C4600231F
:10900000ED5E451B551B7543EA170A405219901037
:10901000364D374A0023ED5E0023D25E521B7A4361
:10902000D50FAA185210821850460223C05E314D47
:109030008000201A304C0023ED5E0023E45E641BA8
:10904000041B7443E01701400C192C49A4100023A1
:10905000CD5E2B490023C85E6346281A7843C10FB2
:1090600008184010211A48460004000CFFF780FB46
:1090700017480422835E0221425E0024015F4446B9
:109080000397029601940624005F00901D4808F0A3
:10909000F7FB5EE70023524613810133984653469F
:1090A0005E89013676B2002E00DD6FE7002352465E
:1090B000538153469F89012601377FB2002F00DD7F
:1090C00071E7002352460127938172E7A424002010
:1090D0001C28002018220200F4260020CA250020A7
:1090E00084230020CC250020F02600200427002027
:1090F000242800209E240020C62500202A280020A5
:10910000BE25002038220200F0B54D465F46564687
:1091100044460023F0B4904A904DD35687B01902CC
:10912000298001215156DBB2090269800221515682
:109130000902A980D27852B21202EA801E2B12D8FC
:109140000023874A0021138053809380D380854871
:109150000093002208F094FB07B03CBC904699466F
:10916000A246AB46F0BD804B9A461B890A335BB2E0
:10917000002B00DCAEE0322B03DD282352461381A6
:109180000A33984653465E89013676B2002E00DCDB
:10919000ADE0322E03DD2A23524632265381534658
:1091A0009F8901377FB2002F00DCACE0322F03DD56
:1091B0001E235246322793815346DB8964331BB208
:1091C000002B00DCABE0FA229946D200934203DD8B
:1091D00051469146654BCB8103F0F6FB002800D049
:1091E000A8E001F015FA624A1378132B00D9AAE01F
:1091F000013313705F4B1A685F4B1A6000239B4664
:1092000003200622AB5EDA170240D3185246D288FA
:109210009B1092009A18594B1B88D218434612B2E1
:109220005A43D31703409A18921013B204216A5E6E
:10923000D11701408A185146898892108900521A24
:109240004F490988511A09B27143CA17024051188F
:109250004C4A89100024125F7A43D40FA21852108E
:1092600089180AB202216C5EE11701400C195146BF
:109270004988A4108900641A43490988611A09B20F
:109280007143CC1704406118404C89100020245EC3
:109290007C43E00F844664446410091B2C8809B2A7
:1092A000200058440004000CFFF762FA2C48042206
:1092B000835E0221425E0024015F444602944C46D4
:1092C0000497039601940624005F0090304808F04C
:1092D000D7FA41E7092352465B4213810A33984685
:1092E00053465E89013676B2002E00DD51E7072332
:1092F00052465B42538153469F89012601377FB214
:10930000002F00DD52E7132352465B429381534600
:10931000DB89012764331BB2002B00DD53E70923EF
:1093200052465B42D3810A33994603F04DFB002835
:1093300000D156E703F0F8F901F06AF90C4A137806
:10934000132B00D854E70B4B0B4A1B681068181AF4
:109350004B4643439B4653E7A4240020D0250020DE
:109360001C28002018220200F4260020C607000056
:1093700014210020B0240020CC200020262800202A
:10938000AC240020C4250020A2240020EE260020CA
:1093900070220200F0B544465F4656464D46F0B492
:1093A000CC4C87B02378113BDBB21E2B18D8CA4AAD
:1093B0009B00D3589F46534600229B5E4A4600219D
:1093C000525E41460020095E0020385E0290002077
:1093D000305E01900020285E0090C04808F050FAEE
:1093E00014232370BE4B00229C5E0222985E04224E
:1093F000995E06229A5EBB4B1C8058809980DA8069
:1094000007B03CBC90469946A246AB46F0BD00234F
:10941000B54EB34D31782B806B80AB80EB80132938
:1094200000D9E0E1012171560B001333DBB2262B8A
:1094300000D9EFE1B1780B001333DBB2262B00D952
:10944000F1E1F1780B001333DBB2262B42D9A748A8
:1094500008F016FAA64808F013FA1223237001E068
:109460009F4DA14E002331782B806B80AB80EB8029
:10947000132900D9C2E1012171560B001333DBB26D
:10948000262B00D9B3E1B1780B001333DBB2262BC6
:1094900000D9BBE1F1780B001333DBB2262B00D9E6
:1094A000B0E1944808F0ECF9112323700023EC5E3E
:1094B0000223E85E0423E95E0623EA5E9BE70023BD
:1094C000874D2B806B80AB80EB808B4B1B78002B08
:1094D00000D17AE100220021002000248BE7874898
:1094E00008F0CEF91523FB222370854B92001A80D9
:1094F0007B4D0022AB5E002B01DD013B2B80022265
:10950000AB5E002B01DD013B6B800423E95E00298B
:1095100002DD013909B2A9800623EA5E002A02DDD4
:10952000013A12B2EA800023EC5E0223E85E62E7B1
:10953000734A1388013B9BB21380002BD8D16E4B2A
:109540001B78002B00D030E112336E48237008F0F6
:1095500097F947E70020644B012118566A4C020234
:109560002280022259560006090261809A56000C98
:109570001202A280DB785BB21B02E380FFF7F8F8EF
:10958000574D0422AB5E02216A5E0020295E06244C
:10959000285F00905D4808F073F90023EC5E022319
:1095A000E85E0423E95E0623EA5E24E7584B594D42
:1095B0009B46594B594E9846594B5A4F99465A4BD0
:1095C0009A4600F0B5FC059003F0FEF9002800D0A3
:1095D00011E1564A5B4694461B68059A63449A42D9
:1095E00000D3E8E6434600229A5E514B00215B5EC1
:1095F000D31A9B10D31A424613804B4600229A5E20
:109600004C4B00215B5ED31A9B10D31A4A46138041
:10961000534600229A5E484B00215B5ED31A9B1092
:10962000D31A524613800023EA5E444B00215B5E4E
:10963000D31A9B10D31A2B800023F25E404B0021DB
:109640005B5ED31A9B10D31A33800023FA5E3D4B26
:1096500000215B5ED31A9B10D31A3B80C2E603F055
:10966000B3F9002800D0ADE0374808F009F900F060
:109670005FFC274B274D18609B46274B274E98468B
:1096800042462B4B274F1B881380254B99464A4651
:10969000284B1B881380244B9A465246264B1B8826
:1096A0001380264B1B882B80254B1B883380254B32
:1096B0001B883B801723237083E7FFF7BBFA91E6F3
:1096C000224B1A78002A76D1FFF71EFC8AE6FFF7B4
:1096D0001BFD87E61A28002074210200782302006F
:1096E0001C28002008270020A4240020B02202000B
:1096F000C4230200DC230200922300202023020066
:10970000E020002000230200D025002018220200C3
:109710008C230020BE2500209E240020042700204A
:10972000F026002084230020EC26002080C3C901FD
:10973000A2240020AC24002090230020EE2600204C
:10974000C4250020262800205C230200642000207D
:10975000414B424A1B781278934200D141E61900EE
:109760001439012900D83CE6122B00D139E61A2A17
:109770005DD01C2A62D0162A50D0022110008843E6
:1097800019284BD01E2A60D0172A00D028E61A00CC
:10979000113A012A00D924E6182322E600F0CAF97A
:1097A00011231EE6FFF7C0FA1CE613232C48237092
:1097B00008F066F816E60022642100201A7003F013
:1097C00013F981E702F0B0FF4EE71233254823700A
:1097D00008F056F80023EC5E0223E85E0423E95EFD
:1097E0000623EA5E07E6204808F04AF832E61F48FA
:1097F00008F046F85AE602F097FFEAE61A4808F041
:109800003FF853E61A4808F03BF84FE6194808F0CD
:1098100037F84BE6154808F033F81BE6112B00D05B
:10982000DFE52270DEE5134808F02AF812E61C2B6B
:1098300002D0112B00D0D4E51A23D2E51A2B02D086
:10984000112B00D0CDE51C23CBE5190011390129DE
:1098500000D9C6E52270C5E5C225002028280020D1
:109860003823020000230200EC220200D82202006A
:10987000B0220200C4220200B0B513006C460833C7
:10988000DB08DB00E31A00AF9D466C462070002A1F
:1098900006D0002308780133E05401319A42F9DC04
:1098A00000230020044DE15C01334840285C9A42CB
:1098B000F9DABD46B0BDC046F0230200F0B589B06C
:1098C0001B2201A901F048F901A91B229820FFF7EA
:1098D000D3FF01AC1F250600002120006D44027853
:1098E0000130FF3A53425341CB18D9B2A842F6D1C6
:1098F0001B2930D01A4F9821380007F0C1FF21787A
:10990000380007F0BDFFFA200138C046C046C04607
:10991000C046C046C046C046C046C046C046C04617
:10992000C046F1D10134AC42E9D131000D4807F015
:10993000A7FFFA200138C046C046C046C046C04610
:10994000C046C046C046C046C046C046C046F1D12B
:10995000012009B0F0BD044807F092FF0020F8E7AD
:109960001025020018250200F024020010B500F0B6
:10997000DFFA0E4BFF21186000230D4A13600D4AD9
:1099800013600D4A11700D4A13700D4A13700D4A81
:10999000137001F059F9041E04D001220A4B1A7009
:1099A000200010BD094807F06BFFF9E72C280020C4
:1099B00030280020382800203C2800203D280020A6
:1099C00034280020352800203628002024250200D5
:1099D00030B5444B89B01C780500002C00D178E0EC
:1099E0000200414B1B329A4200D96BE000F0A0FA12
:1099F00001A9030A4B70030C8B703C4B08701B7859
:109A0000000E0B713A4BC87000201A5E4A71121298
:109A10008A7102201A5ECA7112120A7204201A5E3A
:109A20004A7212128A7206229B5ECB721B120B7351
:109A3000304B00229B5E304A0020125E9B1A4B7313
:109A40001B128B732D4B00229B5E2D4A0020125E51
:109A50009B1ACB731B120B742A4B00229B5E2A4A63
:109A60000020125E9B1A4B741B128B74274B002232
:109A70009B5E274A0020125E9B1ACB741B120B754B
:109A8000244B00229B5E244A0020125E9B1A4B75D9
:109A90001B128B75214B00229B5E214A0020125E17
:109AA00028009B1ACB751B120B761E4B1B221B88A2
:109AB0004B761B0A8B7600F02BFF041E0DD0200086
:109AC00009B030BD01001B22174807F0D9FE002461
:109AD000F5E7164807F0D4FEF1E7154807F0D0FE89
:109AE000EDE7C04636280020FFFF01001A280020BD
:109AF0001C280020A22400209E240020AC2400204A
:109B0000F026002090230020EC260020EE260020E6
:109B1000BE250020C4250020042700202628002080
:109B200084230020CE250020702502004C25020051
:109B3000A8250200F8B5334807F0A2FE1B22324BDD
:109B400052421B689C1828D4304D2A78002A20D015
:109B50002F4EB3420DD82000FFF7B0FE00280ED0E4
:109B60001B3C1AD42B78002B13D023001B33B34299
:109B7000F1D9274B1B222100264807F081FE2648F9
:109B800007F07EFE0022254B1A70254807F078FE6C
:109B9000F8BD244807F074FEF1E7204B1B78002B3A
:109BA000F3D0214B00261B68204A190096571B3919
:109BB00001363603B142E8D9144D2A78002A19D06B
:109BC000134F0C00BB420FD82000FFF777FE002890
:109BD00013D01B3C2100A642D7D22B78002B09D0F2
:109BE00023001B33BB42EFD9094B1B22094807F066
:109BF00047FE02E00B4807F043FE074807F040FE2F
:109C0000C3E7C046E02502003028002036280020A7
:109C1000FFFF010070250200182602003D280020E9
:109C2000FC250200C4250200382800203C28002022
:109C300070B500F07DF9334B1B78002B09D0324C06
:109C40002578002D13D1314A13680A33984218D26F
:109C500070BD2F4C2378002BFAD12B4B1B78002B97
:109C6000F6D02C4807F00CFE01232370F0E7284CB7
:109C70002378002BECD1274807F002FE0123237044
:109C8000E6E7254E10603068FFF7A2FE012358403A
:109C90003368207019001800204A1B3036313060BC
:109CA000914217D81E4B1B78002BD1D0000B07F028
:109CB0003BF903F015FC04F0E1FC0023194DC4B29C
:109CC000EB56A342C4D0200000F09EFD002815D022
:109CD0002C70BDE7144A124C136023783560002BBA
:109CE00004D00020002101232370E2E70F4807F091
:109CF000C7FD3068000B07F017F9F4E70C4807F0D0
:109D0000BFFDA5E736280020342800202C2800209D
:109D1000352800209426020030280020FFFF010093
:109D20003D2800203C28002038280020382602004A
:109D300074260200A222194B1949D20099501949E0
:109D4000194A802099501949043299501849194AE2
:109D5000C0039950A023EB210322DB05C9005A5010
:109D600008315A5010315A5008315A50A121C900B7
:109D70005850802040045850802040055850802082
:109D8000C00558500C495A5004315A5028395A507D
:109D900008395A500021094A995070470060004024
:109DA0000315130003171300140500000319130013
:109DB000031D13001C0500004C07000014070000E1
:109DC0000122014B1A70704744280020A622274B1D
:109DD00052009958002931D00021995024490A682D
:109DE0003932FF320A6001229A64224A1278002A2C
:109DF00024D1A922D2009A58F423FF339A421DD8C5
:109E00001D4B0422995E1D4A914218DDFA22FA2068
:109E100092009A800622995E184AC00091421BDC8B
:109E20000A1C00291DDBFA2112B289005118DA80C0
:109E3000A8220E4BD2009850114A995070470A1C24
:109E4000002910DBFA2112B2890050189A800622EC
:109E5000995E0A4A9142E3DDFA21FA22C900920092
:109E6000E5E70022DFE70022ECE7C04600A0004063
:109E7000402800200627002008270020E7030000D4
:109E800044050000A622254B5200995800292DD0E8
:109E9000002199504C3AFF3A9A64214A1278002ADC
:109EA00024D1A922D2009A58F423FF339A421DD814
:109EB0001C4B0022995E1C4A914218DDFA22FA20BE
:109EC00092001A800222995E174AC00091421BDC60
:109ED0000A1C00291DDBFA2112B2890051185A8090
:109EE000A8220E4BD2009850104A995070470A1C75
:109EF000002910DBFA2112B2890050181A800222C0
:109F0000995E094A9142E3DDFA21FA22C9009200E2
:109F1000E5E70022DFE70022ECE7C04600900040C2
:109F20000627002008270020E70300004405000062
:109F30000122054B9A64A922D2009858034BC0080D
:109F40001B68C0187047C04600A000404028002091
:109F5000014B18787047C046442800200022014B6E
:109F60001A70704744280020F8B55F4656464D46A3
:109F700044460023504AF0B41360504AA22613709E
:109F8000C1239B009A4680231B039B460121534615
:109F90005846A8254A4AF6009151D0504948E43322
:109FA000ED0053519C461350474B484880271350AF
:109FB0009946082350465C46BF00D3519846444B0F
:109FC000D16099511C5060463E4C5851185148463A
:109FD0003E4C18514046D851D9601160C022520001
:109FE00094468022D2009046196062464146394B21
:109FF000043C9950F8395A5891464846364A02402E
:10A00000C020000402435A5042461A6062469F50E4
:10A010005A5894466046314A0240C020000202432A
:10A020005A501F602E4A2F4B2F499A512F4A0836FB
:10A030005A502F49234899512E4E9A51A4222E4E00
:10A04000D2009E502D4A2E4E9A51043699512D49D8
:10A0500010365A50A6222C49D20099502B4A2C492E
:10A060005A502C4999512C4E9A512C4A5A512C4AEB
:10A070001A501951154900205A50FF21294A995068
:10A080000023294AFA3903F067F8002803D0002298
:10A09000002102F02FFD254A0121254803F0CEF8CA
:10A0A00000228321234803F0E3F83CBC9046994604
:10A0B000A246AB46F8BDC0464028002044280020F8
:10A0C00000A0004044050000C40900004C05000049
:10A0D0000090004000E100E0FFFF00FFFF00FFFFF5
:10A0E0004091004000F00140140500000060004075
:10A0F0004C9100401C050000449100400460004069
:10A10000240500002C05000040A10040086000402C
:10A11000340500004CA100403C05000044A1004073
:10A120000C600040040500001C210020C19D0100BE
:10A13000B0260200E422002010B5802304240A4A3D
:10A14000D4500A4B1A78002A08D000221A70084B03
:10A15000084AD0500422044B1A6010BD0100064882
:10A1600000F0EAF8F6E7C04600E100E067200020D2
:10A170001C05000000200040B8240020F0B55F4618
:10A1800056464D464446F0B483B00192002A24DD81
:10A19000802399467C3B9246984600230C008A44D3
:10A1A000124E134D04279B4609E05B46114A33705B
:10A1B000114B0134D15043462B6054450DD04B46D2
:10A1C0002178EF503378002BEFD10C4800F0B4F831
:10A1D000434601342B605445F1D1019803B03CBC97
:10A1E00090469946A246AB46F0BDC0466720002087
:10A1F00000E100E0002000401C050000B824002021
:10A20000842210B5194B5200995800291ED18E2373
:10A21000164C5B00E258002A09D000221448E25094
:10A22000183BC35A002B1BD10122124B1A709222E9
:10A230000E4B52009958002907D0002199509022C6
:10A24000D20099580C4807F01BFB10BD0021995013
:10A25000A322D20099580948C9B200F06DF8D6E798
:10A2600000F078F8064BE050E1E7C04600200040DF
:10A27000B824002067200020B42602009823002084
:10A280001C05000010B51E4800F04CF81D4800F0F9
:10A2900049F8A023E7220321DB05D2009950E821E9
:10A2A00000220E20C9005A50174B1849585018491F
:10A2B00002305850174818495850A0200421C000B7
:10A2C0001950842040001A5014301A5001329A60FC
:10A2D0001A60C2221E38FF3892009850A120043A1A
:10A2E00080009850C0230D4A5B00D1507C30145838
:10A2F0000B4B2340C024240423431350116010BD92
:10A3000098230020B8240020002000400C05000005
:10A310001405000000E0D7012405000000E100E082
:10A32000FFFF00FF80220023FF21520083520232F0
:10A330008152023283527047812210B5FF245200AD
:10A34000835A013323408352C1540232835A01336A
:10A35000835210BD802110B5FF2402004900435AEA
:10A36000C05C0133234053520431535A013B5352D2
:10A3700010BDC046F0B557464E4645468446E0B44B
:10A3800089469A460120002A3BD0B1230027614626
:10A39000244E254D254CDB002F702770F150494687
:10A3A000234BF150802189007750B0602978002933
:10A3B000FCD000212970012A2ED0802101251948C6
:10A3C0008900455001211748894601608021890094
:10A3D0008846FF39A325FF39534600268C46ED00F9
:10A3E00021780029FCD026704159013AD2B2197067
:10A3F000012A0BD049460162002A01D00133EFE760
:10A4000000201CBC90469946A246F0BD41466746D6
:10A41000013347500262E3E78021022501488900A9
:10A420004550CFE7003000400423002005230020E2
:10A430001C050000F0B5474680B407000120002A43
:10A4400027D00025B126A846134CF6002570134DE1
:10A45000AF5180274646BF00EE51114EA951A8606A
:10A4600021780029FCD000210020013A2170D1B2CE
:10A4700001310A4E0A4D59181A7872512278002A71
:10A48000FCD0013320708B42F6D101220020034B17
:10A490005A6104BC9046F0BD042300200030004007
:10A4A0001C050000F8B58423154A5B00D15800292B
:10A4B00004D00021D1500122124B1A708E23104A71
:10A4C0005B00D158002904D00021D15001220E4B4D
:10A4D0001A7092250A4C6D006359002B0FD00B4E59
:10A4E000A759FFF725FDB123DB000200E35839002F
:10A4F000074807F0C5F90323A35100236351F8BDB2
:10A50000003000400523002004230020C404000084
:10A51000C8260200A023E2211A4ADB05C90010B5B3
:10A520005A5008395A500421174B053AFF3A9950AE
:10A53000164A023999500022CD200731FF315A5076
:10A5400014315A501249C0045850A120C121800032
:10A55000890058500539FF395A50A022FC39FF397B
:10A56000D2009950C023C0240A4A03315B00D15065
:10A570007C30135824061B021B0A2343135011601E
:10A5800010BDC0460C060000003000400C05000065
:10A590002405000000E100E08022044BD2009A581C
:10A5A000002A01D101321A607047C0460070004095
:10A5B00080220021054B52009950A122D2009A58C6
:10A5C000D3009B1A024A13807047C04600700040B7
:10A5D000CE2500200A4B0B490B4AC0209950A021E0
:10A5E0000122C9005A50FD39FF395A50074A000666
:10A5F00053581B021B0A03435350802313607047B8
:10A6000000700040041000000405000000E100E0BC
:10A61000F0B5474680B4604C82B02578012D32D029
:10A62000002D1CD0022D07D1FFF782FC5B4B1B686D
:10A63000C01A5B4B984250D832200138C046C04601
:10A64000C046C046C046C046C046C046C046C046DA
:10A65000C046C046F1D102B004BC9046F0BDB12264
:10A660007721504BD2009950802275399200995031
:10A670004D4A4631995001229A602270FFF758FCEA
:10A68000464B1860D8E7FFF753FC444E3368C01AB6
:10A69000434B9842D0D9454F03223B0000217720FD
:10A6A000FFF768FE3B7877211A047B7858201B025D
:10A6B0001343BA7813433E4A1360B122394BD20098
:10A6C000995002228A31FF315A50374958509D60C3
:10A6D0002270FFF72DFC3060AEE7344D03222B00D3
:10A6E00000217720FFF746FE2B7800211A046B78B3
:10A6F0001B021343AA782F4D13432F4A13606A8914
:10A70000288912029B1A98461A00002303F072FF50
:10A710004E06CB110021C2093243AE883004121814
:10A720004B41009201930021E8884246002303F048
:10A7300061FF0E06020A32436E880B12F0030021FD
:10A7400016001F00424636184F410023A8890021F9
:10A7500003F050FFFA23DB009C464902C00D08437A
:10A76000164B60441860124B3200186800213B0001
:10A7700003F040FFCD02420D4B152A43009801998A
:10A78000121A8B4111005B04CA0B1A430C4B1A605E
:10A790000023237050E7C04606230020202300201A
:10A7A0000F270000003000401C0500001823002087
:10A7B0004C2800200823002048280020A82400203E
:10A7C000B024002070B5A024094E0A4D2B000222AF
:10A7D00021007720FFF7CEFD2B786A781B02023428
:10A7E0001343E4B233800236B02CEFD170BDC046C3
:10A7F000082300201C2300200123024A11784B402B
:10A800001370704706270020F0B557464E46454660
:10A81000E0B484B01F2869D80124374B374AA021FF
:10A820001360374AC905D27A06259440354A8C50C0
:10A83000842200215200995033495D5084219D5853
:10A840002D4E4900002DF9D0A327FF00F359000336
:10A850000293A023DB059C46A1236246DB00D45073
:10A86000029B01AD01330293030C6B700023202285
:10A87000EB7098466346000AA87022482A701C5064
:10A8800043467350204B0020F2509C4632008946CC
:10A89000BA4667462B185B78D3515358002BFCD02F
:10A8A0004B464746F7505346F3580130039303286D
:10A8B000EFD18422104952008B58002BFCD0A323E7
:10A8C0000D4ADB00D358A0220393A123D205DB005D
:10A8D000D450039B192001330393FDF7EDFC0120B5
:10A8E00004B01CBC90469946A246F0BD074806F04D
:10A8F000C7FF0020F4E7C04600400040302300209E
:10A90000242300200C0500001C0500000027020085
:10A91000F0B5564644465F464D4684460120F0B4A5
:10A92000874B884C92461C60874BA022DB7AD2056D
:10A930009840864B8426D050002306227600A351EF
:10A94000834B87B0E250842252009346A2597D4B3C
:10A95000002AF8D0A324E4001A59A1260492A022C8
:10A96000AF27F600D2059051049E0136049603AE3F
:10A97000377067463F0CB846777067463F0AB9465E
:10A98000B7706746F770002900D19EE057466D46C4
:10A990002F802F880197002F00D196E06B4F5D46E6
:10A9A000D051002292465A5100940C005A4651460A
:10A9B0009B46A246745C664D5C519C58002CFCD0B2
:10A9C00084275C4600257F00E551009D01316459D4
:10A9D00005940429EED151464B1C5A4C9A460A78EC
:10A9E0005B4B2500E2503C0084222B59554E52000F
:10A9F000002BF9D00023B350A323DB00F358A0258C
:10AA00000593A123ED05DB00E8504B46FF201B0218
:10AA1000000203406446FF2020401818FF264346EA
:10AA200036041B0433401B1801985446013880B289
:10AA3000013084460120824644488C448146AF2040
:10AA4000C9438046CB18424E0093644545D00F2041
:10AA50000138C046C046C046C046C046C046C04693
:10AA6000C046C046C046C046C046F1D15146364BEE
:10AA70004046DB7A99404B46E950314B1B68985170
:10AA800098580028FCD0002083465F460930FF30EC
:10AA90001F50A320C000185805902078985198584E
:10AAA0000028FCD0002083465F460930FF301F504D
:10AAB000A320C0001B5801340593A123DB00E950FB
:10AAC000009B1919234B9942BFD9002007B03CBC09
:10AAD00090469946A246AB46F0BD14200138C046C8
:10AAE000C046C046C046C046C046C046C046C04636
:10AAF000C046C046C046F1D10120134BA022DB7AEC
:10AB000004219840114BD205D0500D4B1A68104BC0
:10AB1000D1500531FF315358002BFCD08423002144
:10AB20005B00D150A323DB00D358A0220593A123BF
:10AB3000D205DB00D050059B012001330593C5E70A
:10AB40003023002000400040242300200C0500009A
:10AB50001C050000FEFF0100F0B544465F46564666
:10AB60004D46F0B483B06C4603232370030C63702E
:10AB7000030AE070A37092B20020002901D0002ADD
:10AB800006D103B03CBC90469946A246AB46F0BD08
:10AB9000284B294CA0272360284CFF05E57AA446C2
:10ABA0000124AC40264D7C518424640018511800C7
:10ABB000244B00259A4600239846A323DB00070078
:10ABC000A1469B466B4656465B5D83510359002B5D
:10ABD000FCD04B464646FE505B46FB580135019380
:10ABE000042DEFD1174B8424A32698460027013A61
:10ABF00095B201350F484D196400F6004346C75021
:10AC000003590C4A002BFBD084235B00D750935987
:10AC10000B700131A942F1D16346DA7A0123A021F8
:10AC20009340A122C905D2008B50019B0120013322
:10AC30000193A6E700400040302300202423002099
:10AC40000C0500001C050000F0B55F4656464D4659
:10AC50004446F0B489B006AD062200212800FDF775
:10AC6000D7FA40236B70353BAB70023BEB70093376
:10AC70002B71013B6B71784B2900981D06229A4677
:10AC800006F075FAAB78032298464146A0230020CF
:10AC9000C131FF31DB058900CA50E9788446894615
:10ACA000C131FF318900CA50297944468B46C131F0
:10ACB000FF318900C8506F79A12039004E46C1315B
:10ACC000FF318900CA506549C0000C50644C0E51D8
:10ACD0005E46A04604340E5101263400BC401C5090
:10ACE0006F78604C3F060F512F785F4D64464F518F
:10ACF0008427543D7F00CC514E51E025ED005A5140
:10AD00005A4D5A51802292011E501A505246584DA7
:10AD10002960D27A964042469E505022554BCC51E3
:10AD2000CA508422C8594D4B52000028F9D0A321A3
:10AD3000C9005958A0200191A121C005C900465061
:10AD400001990127013101914549465000204949A7
:10AD500098505F5058508427995840487F000029E8
:10AD6000F9D00023C351A323DB00C35802938421ED
:10AD7000C3593A4A4900002BF9D0A323DB00D3582A
:10AD8000A0200293A123C005DB00C650029B013323
:10AD90000293334BC650002306205350354BD050FE
:10ADA000842753582D487F00002BF9D0A323DB00C4
:10ADB000C358A0220393A123D205DB00D650039BE6
:10ADC00001330393264BD65000236022C351294BF5
:10ADD000C250224B984684235B009946C359002BEE
:10ADE000F7D0A3234246DB00D358A0270493A12326
:10ADF000FF05DB00FE50049B642001330493FDF744
:10AE00005BFA43462B6053460121DB7A4246994068
:10AE1000134B4846F9500023135006224046154B69
:10AE2000C25043464A4698580028FCD0A3230B4AF8
:10AE3000DB00D358A0220593A1230120DB00D2051B
:10AE4000D150059B0133059309B03CBC904699460F
:10AE5000A246AB46F0BDC04624230020004000407F
:10AE60000C05000024050000540500003407000014
:10AE7000302300201C05000030B5554C83B0A37A68
:10AE8000002B00D197E06B46DD1D00232B7023685B
:10AE90000122597C636818782B00FFF7CBFA002851
:10AEA00000D088E0236801225979636818782B0064
:10AEB000FFF7C0FA002800D07DE02368012219794D
:10AEC000636818782B00FFF7B5FA002800D072E00D
:10AED0002423E35C002B36D00C232B702368012243
:10AEE0001979636818782B00FFF7A4FA002862D15B
:10AEF0003230FDF7E1F9C0232B70A37ADB0762D46F
:10AF0000236801221979636818782B00FFF792FAF9
:10AF1000002850D1637C002B58D12B70236801226C
:10AF2000597C636818782B00FFF784FA002842D117
:10AF30002368287059796368012218782B00FFF77D
:10AF400079FA404235E004232B70236801221979F5
:10AF5000636818782B00FFF76DFA00282BD1A27CCC
:10AF60004023002A2AD02B702368012219796368B4
:10AF700018782B00FFF75EFA00281CD13230FDF75D
:10AF80009BF9637C5A1E93412B7023680122597CE4
:10AF9000636818782B00FFF74DFA00280BD12300C7
:10AFA000226810335179626810780122FFF742FA63
:10AFB000404203B030BD01204042FAE7A27AD207F6
:10AFC000D1D52033CFE7E0232B7099E70223A4E704
:10AFD0006820002070B5060082B0282800D9BBE0A8
:10AFE0002323694C01ADE35C00282CD1002B18D041
:10AFF0002870A27C8023002A02D07E3B2B708033F5
:10B000002222A25C002A00D08AE023680122D97D96
:10B01000636818782B00FFF70DFA002801D123236D
:10B02000E05400232B7007336B7023680222597D94
:10B03000636818782B00FFF7FDF9002800D08BE03B
:10B04000207502B070BD012B19D030232B70A27C6B
:10B050008033002A02D07E3B2B7080332222A25CF8
:10B06000002A5BD123680122D97D636818782B0000
:10B07000FFF7E0F9002802D101222323E254202324
:10B080002B70012E6BD0052E59D9142E4AD90323CB
:10B090006B70A37A002B6FD004236A46D370E37AD7
:10B0A000042B69D0236801229978636818786B466D
:10B0B0000333FFF7BFF9002860D16B460722DB7826
:10B0C000E3726B789B011343DBB26B70236802223F
:10B0D000597D636818782B00FFF7ACF900283BD145
:10B0E00008230122A372207322751C33E35C002B1A
:10B0F00012D12374637C002B0ED16B46DA70236867
:10B10000597C636818786B460333FFF793F900287E
:10B1100002D16B46DB786374002092E72B70A1E7C5
:10B120002B7072E702236B70A37A002B05D00523E6
:10B130006A46D370E37A052BB4D18723C5E7012390
:10B140006B70A37A002B05D006236A46D370E37A8E
:10B15000062BA7D14723B8E70120404271E700231F
:10B160006B70A37A002B05D006236A46D370E37A6E
:10B17000062B97D10723A8E7C723A6E76B789A0188
:10B1800007231343DBB2A0E76820002010B5114A63
:10B190000100537A012B19D0002B13D0022B0AD0B7
:10B1A000032B0CD1102320240370D37C0020002B10
:10B1B00000D00C7010BD082310240370F5E70120A7
:10B1C0004042F7E7022304240370EEE70423082437
:10B1D0000370EAE76820002070B51C4C82B0A37AA7
:10B1E000002B27D06B46DD1DBB2816D8612817D948
:10B1F00002232B70E27A00269A420BD023680122A8
:10B200009978636818782B00FFF714F9002811D19A
:10B210002B78E372300002B070BD01232B70E9E798
:10B22000292804D8132808D904232B70E2E7032324
:10B230002B70DFE701267642ECE7092802D90523C7
:10B240002B70D7E706232B70D4E7C0466820002078
:10B2500070B5584C82B0A37A0600002B00D196E05E
:10B260002423E35C002B00D091E0227D002A30D023
:10B27000421E272A00D885E02322A25C01AD002AC5
:10B2800018D02B70A37C8022002B02D00223023224
:10B290002B702223E35C002B00D071E02368012295
:10B2A000D97D636818782B00FFF7C4F8002801D116
:10B2B0002323E05400232B7007336B702368022292
:10B2C000597D636818782B00FFF7B4F8002800D187
:10B2D0002075F920032E31D86B46D87023680122DF
:10B2E0005978636818786B460333FFF7A3F8002892
:10B2F0004DD16B46FA20D9788000013103F016F861
:10B30000A37A80B2E0814008002B14D001ADBB28A5
:10B3100021D9012301222B70E37A93420BD02368B9
:10B3200001229978636818782B00FFF783F80028CA
:10B3300001D12B78E372002002B070BDFA23311CDA
:10B340009B009E420FD8FA2089B2800002F0EEFFE7
:10B350000138C0B2C0E761280ED829281AD90323C2
:10B3600003222B70D8E7FA20191C89B2800002F062
:10B37000DDFF0138C0B2AFE7022302222B70CBE71A
:10B380002A708BE7C0B2FFF725FE0020D4E701202A
:10B390004042D1E7132805D8092807D905230522FB
:10B3A0002B70B9E7042304222B70B5E7062306228D
:10B3B0002B70B1E768200020F0B54746242380B405
:10B3C000304D82B0EB5C0024002B2BD1AC7A002CEA
:10B3D00054D00133984304402F7C2C74041B621E0C
:10B3E000944106006442002821D12A7D002A30D0F1
:10B3F0006A7C002A16D107326A4413702B68904683
:10B40000597C6B68187813000122FFF713F80028A5
:10B4100008D143461B786B74002E03D0FFF72CFD38
:10B42000002827D1200002B004BC9046F0BD6A7C01
:10B43000002AF3D107226A4413702B689046597C86
:10B440006B68187813000122FEF7F4FF0028E0D0A3
:10B45000E4E76B46DA712B680122597C6B68187837
:10B460006B460733FEF7E6FF0028DBD16B46DB793E
:10B470006B74D7E701242F746442D3E7012464423C
:10B48000D0E7C04668200020F0B54F4646467023FE
:10B49000C0B4050083B0034069D06B469E1D0123F4
:10B4A0003370484C01222368597D63681878330053
:10B4B000FEF7C0FF002800D07EE0402233783070D5
:10B4C000934323732A4266D03A2084463738814614
:10B4D00001383823392201213B278046A80604D4AD
:10B4E00043463A00337049466346E80601D41300E8
:10B4F00031702A0700D4337023680122997D636874
:10B5000018783300FEF796FF002855D108232A004B
:10B510009A4320D02323E35C002B1CD06B46D871C8
:10B52000A37C8022002B03D06A460223D37182229F
:10B530002223E35C002B01D06B46DA7123680122E1
:10B54000D97D636818786B460733FEF773FF0028D0
:10B5500001D12323E05400233220A5722375FCF788
:10B56000ABFE002003B00CBC90469946F0BD00280D
:10B570001ED16B464027134C9E1D23683770597DA2
:10B580006368012218783300FEF754FF002813D1B6
:10B590003378BB4323733E200423844637388146E7
:10B5A000013833703D22383305213F27804695E727
:10B5B0006A46961D337074E700230120A37240424F
:10B5C000D0E7C04668200020802370B5774C84B057
:10B5D00002AD2B7023680122597D636818782B0017
:10B5E000FEF728FF061E00D0C2E06420FCF764FED0
:10B5F00023682E70597D6368012218782B00FEF7AE
:10B6000019FF002800D0B3E070232B7023680122BB
:10B61000D97E636818782B00FEF70CFF002800D055
:10B62000B5E023680622597E636818782B00FEF780
:10B63000A1FE002800D09BE004216B7901269B002D
:10B6400019400223EA78520013406A780B433240D3
:10B65000134300D182E0D9B2012B03D0022900D0DC
:10B6600098E00023E37400232B7023680122D97E25
:10B67000636818782B00FEF7DDFE051E00D086E01B
:10B680000122FF235242A37223726372E372E281AA
:10B690002274A3742332FE3BA35423732233E05459
:10B6A000607520752000163A16300021FCF7B0FDB9
:10B6B0002423E5540133E554A37AE584002B57D0C5
:10B6C0006B46DD1D18232B70237A032B0FD02368C4
:10B6D00001229979636818782B00FEF7ABFE0028E9
:10B6E00046D12B78DB082372A37A002B40D00023AD
:10B6F0002B70637A002B0FD023680122D9796368FD
:10B7000018782B00FEF796FE002831D12B78DB0845
:10B710006372A37A002B2BD005232B70E37A052BC1
:10B720000BD0236801229978636818782B00FEF704
:10B7300081FE00281CD12B78E372FA208000FFF7ED
:10B7400087FD002814D10020FFF736FE041E0FD11C
:10B750000020FFF799FE200004B070BD236801228D
:10B76000D978636818782B00FEF704FE002802D011
:10B7700001246442EFE70F222B78134010D0042BF2
:10B7800000D06EE70A4806F07BF8E6746BE7032406
:10B790006442E0E70124074806F072F86442DAE701
:10B7A0000124054806F06CF86442D4E768200020C4
:10B7B000D42702005C27020084270200F0B544462B
:10B7C0005F4656464D4698462423F0B4954C91B0BA
:10B7D00004900B91E35C002B00D01BE142461370F8
:10B7E000A37A002B00D115E1237C002B00D111E1BD
:10B7F0005A0600D5BCE0002203920292063291461E
:10B80000043A9346924606329446043A0A920992C2
:10B810000632089207920692063A059200220627FF
:10B82000062608250820022101929A0610D55A46BC
:10B830000392524602920A9AE1469346099A2F00D1
:10B840009246089A060094460191079D069805992C
:10B85000DA0607D55A4603925246E1462F00060003
:10B86000029201911B0703D4039B029F9946019EFC
:10B8700023680DAD197B6368022218782B00FEF750
:10B8800079FD002800D0C5E02B786A781B021A43A6
:10B890009246BA4200D286E0626853885B089A45B5
:10B8A0000ED923681078D97C01222B00FEF762FDA7
:10B8B000002800D0AEE02B78DB0600D5ADE0626852
:10B8C00023681078597B32002B00FEF753FD834626
:10B8D000002800D09EE04946504602F027FD1A9B02
:10B8E000013818705A4643461A70002E02D0237C45
:10B8F0001B076CD405239A46013B99469B46023BA5
:10B9000001939C460326012200210023BB424AD01A
:10B91000237C580614D56B5CAA5C1B021343049A63
:10B92000138043461A784023134342461370BC45A4
:10B9300039D048463200DC465646237C01990190B6
:10B94000980632D4DB062ED56B5CAA5C1B0213432F
:10B95000049A0020938043461A78102313434246EA
:10B96000137011B03CBC90469946A246AB46F0BD60
:10B9700002220392029206329146043A934692467C
:10B9800006329446043A0A920992063208920792C5
:10B990000692063A0592043A082708260A250A2044
:10B9A0000421019241E70020DBE76B5CAA5C1B02EB
:10B9B0001343049A538043461A7820231343424684
:10B9C0001370BC45EFD0237C32000199BAE72B7885
:10B9D0006A780B991B0213430B80AB78EA781B0241
:10B9E00013434B802B796A791B0213438B804346A8
:10B9F0001A7808231343424613700B239A46013BDF
:10BA000099469B46023B01939C4609260722062144
:10BA1000023B7BE701204042A3E7FFF72DFA02201B
:10BA200040429EE768200020F0B54F46464624235A
:10BA3000C0B4284C83B0E35C070089469046002BD5
:10BA40003BD0A37A002B38D0236801AE197B636802
:10BA5000022218783300FEF78DFC00282DD13578AE
:10BA600073782D021D43BD422AD3606843885B086A
:10BA70009D420CD923680078D97C01223300FEF75F
:10BA800079FC002819D13378DB061DD4606823685F
:10BA9000FAB2597B00784B46FEF76CFC00280CD1BB
:10BAA0003900280002F0B8FB434601381870002026
:10BAB00003B00CBC90469946F0BD01204042F7E728
:10BAC000434618700138F3E7FFF7D6F902204042E9
:10BAD000EEE7C046682000202223024AD05400200E
:10BAE0007047C04668200020232370B5174C82B0F1
:10BAF000E35C0500834224D000281DD180228220EF
:10BB0000022600216B4607331970A17C002901D061
:10BB100002001E702221615C002900D01A70226888
:10BB2000D17D626810780122FEF784FC00280AD1DA
:10BB30002323E55402B070BDB022B220322630215A
:10BB4000E0E70020F6E701204042F3E7682000200C
:10BB500070B50D0082B0161E20D0124CA37A002BB7
:10BB60001CD0020A01AB1A70C0B26268587040184B
:10BB70005189884212DC21681078C97E0222FEF7C2
:10BB800059FC00280AD12368EAB2197E6368187844
:10BB90003300FEF74FFC404202B070BD012040422E
:10BBA000FAE7C04668200020F0B556465F464D468D
:10BBB0004446F0B48BB003932523514E0191029279
:10BBC000F35C8246002B75D1002973D0002800D188
:10BBD00094E00400102800DD75E0A3B29B46B37A20
:10BBE000002B67D0002305AF70683B707B704389E2
:10BBF0009C425FDC019B0025984638E03368107852
:10BC0000D97E02223B00FEF715FC002852D1336892
:10BC10004A46197E7368187806ABFEF7ABFB00281E
:10BC200048D1220006A9404605F092FA00284CD1DE
:10BC30005D44ADB2AA454BD953465C1B102C00DDC8
:10BC40001024A3B29B46019B9846A8444346002B70
:10BC500030D0B37A002B2DD02B0A3B707068EBB23A
:10BC600022047B70120CD3184289934222DC336881
:10BC70000078D97E02223B00FEF7DCFB002819D1B8
:10BC8000E3B2994633684A46197E7368187843468A
:10BC9000FEF7D0FB00280DD1B37A002B0AD02B0A77
:10BCA0003B707268EBB27B702404240C51891B1921
:10BCB0008B42A3DD012040420BB03CBC904699462C
:10BCC000A246AB46F0BD102487E702204042F3E7CE
:10BCD000029A130A3B7033687A70597F73680222A4
:10BCE00018783B00FEF7A6FB0028E3D125230122AC
:10BCF000F2546B469B890020F384DDE705AFE8E74B
:10BD000068200020242330B55A4C83B0E35C834282
:10BD100076D0002800D17AE02522A25C002A00D14A
:10BD20009EE0002B00D06EE0A27A002A00D19AE0BB
:10BD30006A46D51D2B7023680122597C63681878E8
:10BD40002B00FEF777FB002801D12B786374A37CCE
:10BD5000002B36D0236801221979636818782B00EC
:10BD6000FEF708FB00282CD1A37ADB0700D56FE093
:10BD700020222B7893432B70236801221979636862
:10BD800018782B00FEF756FB00281AD10330FCF779
:10BD900093FA2223E35C3022002B01D080238032EF
:10BDA0002B702323E35C002B00D02A702368012230
:10BDB000D97D636818782B00FEF73CFB002800D182
:10BDC000A074E08CFFF744FA6B46002206331A7029
:10BDD0006268232110780122FEF72CFB2423012224
:10BDE000E254223B2B702368597C636818782B003F
:10BDF000FEF720FB002801D12B786374FFF73CF895
:10BE0000002003B030BD6B46DD1D002392E7002B00
:10BE100022D1A27A002A29D06A46D51D2B70236828
:10BE20000122597C636818782B00FEF703FB002879
:10BE300001D12B786374237C01222B70636823214A
:10BE400018782B00FEF7F6FA00222423E254D5E7F7
:10BE500020232A7813438EE76B46DD1D2870DEE72A
:10BE600001204042CDE76B46DD1D70E76B46DD1DCE
:10BE7000E1E7C04668200020802210B5C823D20028
:10BE800002490348FFF790FE10BDC0466C2802002F
:10BE9000F60B0000F0B5404C87B002AF050003AED2
:10BEA00021000322380005F062F9211D0322300031
:10BEB00005F05DF921000322083104A805F057F9C7
:10BEC000210003220C3105A805F051F903210800D7
:10BED0006A466C4628403B5C1370EA080A40BB5C2B
:10BEE000B25C6370AB090B40F95CF35CA170315C30
:10BEF00001AC2170627003216A462848A370FFF7E5
:10BF000027FE002845D1220003212548FFF720FE07
:10BF100000283ED1032204A9684605F028F903222F
:10BF200005A9200005F023F96B0708D56A4601230F
:10BF3000694612781A430A70227813432370AB06BD
:10BF400008D56A460123694652781A434A706278D6
:10BF500013436370EB0512D488206A460321C000A6
:10BF6000FFF7F6FD002814D1220003210D48FFF74A
:10BF7000EFFD00280DD10C4B1D8107B0F0BD6A46C6
:10BF80000123694692781A438A70A2781343A370FA
:10BF9000E2E701204042F0E72028020026040000EA
:10BFA0002A040000310400003423002010B5144995
:10BFB00086B004000C22103103A805F0D8F8C82C74
:10BFC0001AD82100C82002F0B1F9013880B201AAC4
:10BFD000030A507002210B481370FFF7B9FD0028C7
:10BFE0000AD103AA0C210848FFF7B2FD002803D1AB
:10BFF000064B9C8106B010BD01204042FAE7C046C6
:10C000002028020016020000C10A0000342300208C
:10C01000F0B5050083B043076BD0C823DB0099421D
:10C0200067D8080003F08CF94D4902F0BBFC6B4661
:10C03000DC1C071C2000FFF7A9F82378042B00D193
:10C040007DE033D9082B6AD0102B52D18A21381CBD
:10C05000C90502F071FE02F0F9FA424986B2381CB5
:10C0600002F06AFE02F0F2FA80B201AC330A2370E9
:10C07000030A6670A370E070EB0729D4AB073CD4C9
:10C0800000206B0737D5EE20220002214000FFF789
:10C090005FFD00282DD16B462D309A1D0221FF3007
:10C0A000FFF756FD431E9841404224E0022B20D169
:10C0B0008D21381CC90502F03FFE02F0C7FA2A495B
:10C0C00086B2381C02F038FE02F0C0FA80B2CCE72B
:10C0D000EA20220002214000FFF73AFD002808D1A3
:10C0E0006B4625309A1D0221FF30FFF731FD0028F5
:10C0F000C4D00120404203B0F0BDEC202200022158
:10C100004000FFF725FD0028F3D16B4629309A1D2A
:10C110000221FF30FFF71CFD0028B1D0E9E78B2199
:10C12000381CC90502F008FE02F090FA0F4986B2E9
:10C13000381C02F001FE02F089FA80B295E78C21EA
:10C14000381CC90502F0F8FD02F080FA084986B2F1
:10C15000381C02F0F1FD02F079FA80B285E7C046A2
:10C16000000048430000C044000040460000404535
:10C170000000C045F0B54E4645465746E0B486B08F
:10C18000924B03AC06002200042168200393FFF7C2
:10C19000DFFC4022A32332402370904600D10DE102
:10C1A0001D3363700833A370063BE370C0277F0024
:10C1B000374000D1FDE0C423237108336371063B8F
:10C1C000A371A32322000A218148E37123726372C1
:10C1D000FFF7BEFC0323334099464A462023002A3A
:10C1E00000D1B833220001217A4823706D46FFF751
:10C1F000AFFC09227849B30600D4D8E01C312800EE
:10C2000004F0B5FF97202A000921C000FFF7A0FC29
:10C21000002F09D0F30500D5D4E0704B0393220022
:10C2200004216F48FFF794FCF30700D4B6E08B209D
:10C23000F8232200012100012370FFF789FCFA2175
:10C240000720FFF7E5FEA4203F232A00012140003C
:10C250002B70FFF77DFC002350209A462A00012115
:10C26000FF302B70FFF774FC5346EF202B70142324
:10C270002A00022140006B70FFF76AFC5346ED2054
:10C280002B7064232A00022140006B70FFF760FCD2
:10C2900053462B708E23AE206B706B33AB702A002D
:10C2A000693B04214000EB70FFF752FC5346AD2080
:10C2B0002B7008232A00022140006B70FFF748FC16
:10C2C0005346AC202B7002232A00022140006B70E1
:10C2D000FFF73EFCB307DB0FD833220001214148B2
:10C2E0002370FFF735FC730752D53F4B00932A00AC
:10C2F00004213E48FFF72CFCFEF7BEFDF30641D5B6
:10C300003B4B00932A0004213A48FFF721FCFEF73B
:10C31000B3FD0823384C33436381FEF7ADFD43463C
:10C32000002B22D10A20434684460C308246103826
:10C33000A3731422042310211A258046002F04D051
:10C3400043462A00A373514663461420304201D06D
:10C350001300A1734A46002A00D0A373002006B040
:10C360001CBC90469946A246F0BD10200623844688
:10C370000C3082461038A3731A220433162120256C
:10C380008046DBE70422A3212800FBF741FFB9E741
:10C3900004228B212800FBF73BFFA8E78B20D82342
:10C3A0002200012100012370FFF7D2FB92E7283120
:10C3B00025E7A32323716371A37102E76370A37060
:10C3C000E370F3E60D4B039329E7C04602CAE30985
:10C3D000A70A0000B60A000020280200B080B4902E
:10C3E000A20A00003D070000C0C2C4C6980A0000AF
:10C3F000202830389E0A000034230020B28BB69BE0
:10C40000F0B544465F4656464D460023F0B491B021
:10C410001A9C060023807C4B0F00987B914608A94C
:10C420001B9AFFF701FB03B298462380181E74D1B4
:10C430001422754B5B891A4200D075E00325AC4687
:10C44000013DA846013DA94600250C2100220420FB
:10C45000AA460791013906910139059101390491E4
:10C460000139039101399346029106320139019154
:10C47000009201395D062DD5524608ADAA5C120224
:10C4800092462A004D46525D554615433D8045462D
:10C4900008AA525D65461202904608AA525D4546BA
:10C4A000154308AA515C105C009A00029346079A53
:10C4B00008430092049A08219446039A7D8090468E
:10C4C000029AB8809146019A2088924601432180C1
:10C4D00005980699C0277F003B421BD0554608AA05
:10C4E000575D4D46525D45463F02174308AA3780C7
:10C4F000575D6546525D3F02174308AA105C515CC8
:10C5000000020143B180009A702193467780208811
:10C51000014321809B0752D1002011B03CBC9046C2
:10C520009946A246AB46F0BD089A11BA4A46116038
:10C53000099A091410BA4A4650600A9A8C4612BAEF
:10C5400092464A46554695604D460B9A514612BA58
:10C55000EA6065466D43AC4600140914404312146A
:10C5600049435243604440188018F1221206944611
:10C5700080226044920490423FD880212288490062
:10C580000A43228010229346063200920632079216
:10C59000013A0692013A0592013A0492013A039255
:10C5A000013A0292013A0192033A9446013A9046C6
:10C5B000013A9146013AEB39142092465AE708AB0A
:10C5C0009C465C4664446378E678DA070BD50E4AED
:10C5D0001268002A07D007200100F30831401840F4
:10C5E0000131904763781B0796D5074B5B68002B9A
:10C5F00092D0B009984700208FE7FEF73DFC4346F4
:10C6000001202380404288E7342300200023F0B536
:10C61000C356002B36DD3022002320240821282693
:10C6200010259446382703228256002A18DD062159
:10C6300041560022002902DD134398B2F0BD0029C3
:10C640003AD10721415640320029F5DC51D1082169
:10C65000415640320029EFDC59D1E0225200EBE78D
:10C66000002A27D1042282560B00002ADFDC3ED1AB
:10C67000052282562B00002AD9DC3B00002AD6D0A6
:10C680006346D4E7002B0CD10123C356002B16DDE3
:10C6900031220123212409212926112594463927F5
:10C6A000C1E73422042324240C212C26142594468B
:10C6B0003C27B8E72300BAE780225200BCE7002BF2
:10C6C0000CD10223C356002B16DD32220223222472
:10C6D0000A212A26122594463A27A4E73522052363
:10C6E00025240D212D26152594463D279BE7330053
:10C6F0009DE7A02252009FE7002B0BD13722072392
:10C7000027240F212F26172594463F278BE7013238
:10C71000FF3291E73622062326240E212E261625E7
:10C7200094463E277FE7C046F0B55F4656464D46E5
:10C730004446F0B4764B91B004AA944601930E237C
:10C74000634400930AA900230CAA08A8FFF758FE27
:10C7500041B2002900D0D7E00C9802F0A9FDC22117
:10C76000890502F0E9FA041C0D9802F0A1FDC2212E
:10C77000890502F0E1FA80460E9802F099FDC22187
:10C78000890502F0D9FA81460F9802F091FDC22185
:10C79000890502F0D1FA211C051C201C02F0CCFAFC
:10C7A0004146071C404602F0C7FA494682464846C1
:10C7B00002F0C2FA291C0290281C02F0BDFA514670
:10C7C000061C381C02F0CCFB029902F0C9FB311C9C
:10C7D000039601F071FF04F0DFFB04900591291C22
:10C7E000484602F0A9FA41468346201C02F0A4FA0A
:10C7F000011C584601F060FF04F0CEFB02000B0064
:10C8000002F0DCFD049A059B00F064FF0022414B1E
:10C8100003F024FD04F010FB3F4B291C1880404618
:10C8200002F08AFA49468346201C02F085FA011C70
:10C83000584602F095FB04F0AFFBC02300221B0614
:10C8400003F00CFD00F0E4FE80268B4636065E44C5
:10C850000022304B310003F001FD04F0EDFA2F4BC4
:10C8600051461880381C01F027FF029902F078FB2E
:10C87000039902F075FB04F08FFB06000F004046A1
:10C88000494602F059FA291C8046201C02F054FA4D
:10C89000011C404601F010FF04F07EFB02000B007B
:10C8A00002F08CFD32003B0000F014FF0022194B17
:10C8B00003F0D4FC04F0C0FA7022194B188004ABCA
:10C8C000DB891A420BD004AA118A164A118004AAE5
:10C8D000518A154A118004AA918A144A11801B07B3
:10C8E0000BD504AB1A8B124B1A8004AB5A8B114B2D
:10C8F0001A8004AB9A8B104B1A8011B03CBC904646
:10C900009946A246AB46F0BD0C4804F0B9FFF4E7E7
:10C9100093230020005FC440A2240020AC24002008
:10C9200090230020EE260020C42500202628002089
:10C93000C0250020862300209423002064340200B8
:10C9400000B5194B89B000930F2306A96B44002250
:10C9500004A8FEF733FF41B2002920D16B467022B4
:10C96000DB7B1A420BD06A46118A104A11806A4654
:10C97000518A0F4A11806A46918A0E4A11801B071C
:10C980000BD56B461A8B0C4B1A806B465A8B0B4B94
:10C990001A806B469A8B0A4B1A8009B000BD094871
:10C9A00004F06EFFF9E7C04693230020EE26002036
:10C9B000C425002026280020C02500208623002032
:10C9C0009423002084340200A223A022DB00D2059D
:10C9D000D35801209B0604D4024B1878431E98417B
:10C9E000C0B270479323002070B5050082B00020CC
:10C9F0000E00FEF7E9FD0100324804F041FF782007
:10CA0000FEF742FD0100304804F03AFF7820FEF7BF
:10CA1000D3FC01002D4804F033FF0020FFF75CF841
:10CA20000120FFF761F8002D1FD16B46DC1D0122AC
:10CA3000DD711A2123006820FDF7FCFC0100244869
:10CA400004F01EFFFA203100400101F06FFC0138B4
:10CA500020701921230001226820FDF7EBFC010062
:10CA60001C4804F00DFF02B070BDFFF705FA01008D
:10CA7000194804F005FF1948FFF7C8FDFFF70AFA47
:10CA80000100174804F0FCFE7220FF30FFF772FB34
:10CA90000100144804F0F4FE6420FFF787FA010057
:10CAA000114804F0EDFE0120FFF72CF901000F48BA
:10CAB00004F0E6FE0A20FEF78FFB01000C4804F0AC
:10CAC000DFFED0E7A8340200C0340200D8340200F0
:10CAD0008035020098350200F034020094200020D6
:10CAE00008350200203502003835020050350200BA
:10CAF0006835020010B50B0001000B4804F0C0FEC1
:10CB00008021A123A022FA20C900DB00D205D15048
:10CB1000C000FBF7D1FBBFF34F8F044A044BDA6030
:10CB2000BFF34F8FFEE7C046B03502000400FA05A0
:10CB300000ED00E080218023184A8902D150802234
:10CB4000D221174B520289005A5040395A500122C3
:10CB50002F205A600138C046C046C046C046C04675
:10CB6000C046C046C046C046C046C046C046F1D1D9
:10CB70009A6000230B4A2F2013600138C046C0463C
:10CB8000C046C046C046C046C046C046C046C04675
:10CB9000C046C046F1D1044A1370704700E100E07E
:10CBA000001001404423002064230020A021F0B5A0
:10CBB000002347462C4A490080B453500431535057
:10CBC00004315350043153504C39535004315350B5
:10CBD000264B1B68002B37D0254900265258254983
:10CBE000254F0C68141B00222402240A904602E000
:10CBF000002D1AD02B001A68A24216D8A41AB61813
:10CC00001A7CDD69002AF3D0424699691A745A6980
:10CC10003B68002B1BD0100098470028E8D000226A
:10CC20000021FFF767FF002DE4D1144B14491A7857
:10CC30000B789A420ED0134A9B009E50802180238D
:10CC4000114A49035B00D15004BC9046F0BD080076
:10CC50009047CDE70132D3B2022B01D00B70EAE747
:10CC600000230B70E7E7C046001001404823002076
:10CC700004050000442300204C23002058230020FA
:10CC8000592300205C23002000E100E0F0B55F465E
:10CC900056464D464446F0B4C54BC64A1B68C64985
:10CCA0008BB0059309781378994200D157E101338D
:10CCB000DBB2022B00D100231370C04A9B009B58AB
:10CCC000BB4A9A46059B53441B021B0A136001236F
:10CCD0000193BB4B00241B689B46BA4B5A461B78FA
:10CCE000914619000393B84B88461B684746049346
:10CCF000AF4B013F1B680793B44B1B78099300238C
:10CD00009C4606930893FBB266469846FF2B32D0AA
:10CD10004346D800049B9C46130060440178457844
:10CD200000961A00A9421FD046684A00B44652181D
:10CD300086780131D200C9B262448E4200D1EDE062
:10CD40001678022E00D1C7E0032EEAD1002BE8D0DE
:10CD50001C74DB69002BFBD1013345780093002361
:10CD600099461A00A942DFD14746013FFBB2009E17
:10CD70009846FF2BCCD1089BC8460292B446002BA4
:10CD800000D0F0E0069B002B02D0894B079A1A6076
:10CD90006346002B02D04246894B1A60019B002B50
:10CDA00000D02DE15B46029A00259B1A5A1E934142
:10CDB000DBB205937E4B00271B6802999C46804B93
:10CDC0001B689B46814B1B78069300230193804B85
:10CDD000994601230093039B013BDBB20393FF2B96
:10CDE00000D1F9E0049ADB0092460E009A44002D2F
:10CDF00028D06A68A9682C00ED696346D31A1B0223
:10CE00001B0A4B4552D86A4612785B18236067604C
:10CE1000A7602274E761002E58D031683000994233
:10CE200005D3B9E01168994200D3A3E01000C269AC
:10CE30005B1A002AF6D1E26132002360C461160059
:10CE4000002DD6D153461A785B7831009342C2D078
:10CE5000514649685300884651469B180132D2B268
:10CE60000A708978DB004344914200D19DE0197833
:10CE700032000129E3D15C68227C904641463200B1
:10CE80000029DCD19A686260D968A1601869E06005
:10CE90005B69A361069B002BAFD043460022636011
:10CEA0006346D31A1B021B0A4B45ACD963469A1A38
:10CEB0001202120A8A4264D28B1A6A4612782360DE
:10CEC0006760A7602274E761002EA6D122000123CB
:10CED000A34601931600B3E75668002B30D09E425C
:10CEE0001ED0009A1F00944602E0964206D017001A
:10CEF000FA69002AF9D16246009212E76546009568
:10CF0000BA420FD01568D269FA61002A16D01368A8
:10CF10009C466544156045784B4602E700210FE7C3
:10CF20001A001F00DE69002E0CD00125009515683F
:10CF3000D269B1463300FA61002AE8D14578F0E6BB
:10CF40000023EEE60125234B9D6000950695002504
:10CF5000002307950135994608950995D2E70023E6
:10CF60009A460193B5E66A4624215218174B127867
:10CF70001A7007E7C91A1160E26123603200C461C8
:10CF80005DE76B461B7827606760A7602374E761E5
:10CF9000002E9BD000233168CB1A3360220001237E
:10CFA000E661A346019316004AE7524615705EE714
:10CFB0004423002058230020592300205C23002014
:10CFC0004823002050230020542300205A2300200F
:10CFD000FEFF7F0000100140019B002B00D09DE070
:10CFE000029B994236D1059B002B33D10023534A33
:10CFF00013700BB03CBC90469946A246AB46F0BDC0
:10D000004F4B002418680025029B0021002657463C
:10D0100015E01A68BA4200D984E0D868BF1A8918A6
:10D020001E60DC69002807D0DD611D00059A98604C
:10D0300052181202120A5A6023002000019C002B91
:10D04000E7D1002C01D03E4B18600023029301333E
:10D050000593AFE6002900D15DE00B68394898469A
:10D06000394B3A4DC4583A4B2E781B68E11A0902E5
:10D07000090A0331002E2DD042468A4200D20A000E
:10D08000A820D21812022F49130AC0002E4D0B50AF
:10D090004A591B1B121B1202120A1B0203321B0AE3
:10D0A0009A42A3D94B590B502F200138C046C04695
:10D0B000C046C046C046C046C046C046C046C04640
:10D0C000C046C046F1D180218023224A89025B00FC
:10D0D000D1508BE78026D1277602BF00C651403F52
:10D0E000C651C02280271B4EBF025200B750376086
:10D0F000012606602F200138C046C046C046C04603
:10D10000C046C046C046C046C046C046C046C046EF
:10D11000F1D12E70B0E7FFF70DFD67E75A46084BD7
:10D120001A605DE7BA46002C01D0054908605146F7
:10D13000521A1A600293012305933BE65A230020FA
:10D140004823002000100140040500006423002053
:10D150004423002000E100E0F8B54F464646C0B445
:10D160000326350080460F0014009946154007201D
:10D17000002D03D00CBC90469946F8BD002A44D03F
:10D18000FFF7D8FC4A46224B80201A602200214B30
:10D1900018321E70204B62601C607B00DB19DB00C4
:10D1A000D218E260D318C022636125706570A77041
:10D1B00025726572A77225746574A774C524FF2152
:10D1C000164B40031D60164B52001D70154BA400FA
:10D1D0001D70154B98501A598A433F390A431A510A
:10D1E000A122186040461149D2008850C420800016
:10D1F0001C580F4A2240C024240222431A500D4BCF
:10D200000020CA580C4B1A60B4E7034B1A60B1E710
:10D210004C230020502300205423002048230020CA
:10D22000582300205923002000E100E000100140B5
:10D23000FF00FFFF040500004423002010B50B4B46
:10D240001B68002B0BD0002A07D0002805D00368EC
:10D2500008201C7C002C04D010BD0720FCE708200F
:10D26000FAE759745A610020F6E7C04654230020BB
:10D27000F0B5344B1C68002C06D0002804D00723DE
:10D28000042903D81800F0BD0823FBE74369002BED
:10D29000FAD0437C012B44D000262B4B10255B6831
:10D2A000DB05DB0D25D164196378A5785F1CFFB21F
:10D2B000BD423AD02578BD4235D05D00ED18636897
:10D2C000ED009C4665440423002DDBD0033B2B700E
:10D2D00068601E4B1E48C358E960AB608021802304
:10D2E0006A611C4A5B0049032E616770D1500023BC
:10D2F000C8E7103B5DB2002D19DBAD08C035154FF6
:10D30000AD00ED5903273B40DB00DD40AB093B405E
:10D31000DBB20025012BC6D00835032BC3D008355E
:10D32000C1E70E00B9E70423ACE70027C2E70F25E9
:10D33000094FDBB2BC461D40083DAD08AD00654459
:10D340006D68DFE75423002000ED00E004050000D5
:10D350000010014000E100E018ED00E051DF7047EF
:10D3600061DF7047F0B557464E464546E0B4344B52
:10D37000344E1D6899466B425D41334BEDB21C68DB
:10D38000984663425C4182B0E4B2304FB246002D11
:10D3900013D0002C40D13C68338801A920000B80B9
:10D3A000FFF7DEFF052837D000282AD00022002111
:10D3B000FFF7A0FB0024002DEBD101A8FFF7CEFF63
:10D3C00005280DD0002822D000220021FFF792FB73
:10D3D000002C27D0012401A8FFF7C0FF0528F1D1B8
:10D3E000002C19D153466A461B8801A99380174B1C
:10D3F0001C682000FFF7B4FF05280DD00125002888
:10D40000D4D1434620001B6898470024D3E74B46FD
:10D4100001981B689847DBE702B01CBC9046994610
:10D42000A246F0BD6A46074B01A91B889380074BB3
:10D430001C682000FFF794FF0528B5D10124CAE736
:10D440006C23002066230020702300206823002026
:10D4500010B50A4B1B68002B08D09847002800D154
:10D4600010BD00220021FFF745FBF9E7044B1B78B4
:10D47000002BF5D0FFF776FFF2E7C04674230020BB
:10D480006523002003210A4802680A430260094814
:10D4900002680A4302600849084A094B9B1A03DDE7
:10D4A000043BC858D050FBDC06488047064800477C
:10D4B00024050040540500400438020000200020EC
:10D4C000A82000202582010021810100FEE7FEE75F
:10D4D000FEE7FEE7FEE7FEE749004B08190070474C
:10D4E000454AF8B5564692464B005B0D9A444D4668
:10D4F0005F4644465246F0B4894605000C000E00D3
:10D500000700132A22DC002A47DB52463B4B13411B
:10D5100098460B0042461340034311D0384A394B1A
:10D5200001F04CFF0022002301F016F8002805D07E
:10D53000002C41DB4E46434600279E433800310015
:10D540003CBC90469946A246AB46F8BD5246332AAB
:10D5500008DD8023DB009A45F2D102000B0001F0C8
:10D560002DFFEDE7284A9446012263445242DA40F7
:10D5700093460242E4D0224A224B01F01FFF0022D0
:10D58000002300F0E9FF0028D8D0002C1ADB5B460E
:10D590004E469F4338003100D2E7194A194B01F03B
:10D5A0000DFF0022002300F0D7FF0028C6D0002C7A
:10D5B00016DB00270026C1E7802352465B03134198
:10D5C0009944B7E75346142B12D03423524601270F
:10D5D0009B1A9F407F19AF429B415B429944D6E71B
:10D5E0006400640825430027002DA7D0074EA5E757
:10D5F000133B9C46E144CAE701FCFFFFFFFF0F001D
:10D600009C7500883CE4377EEDFBFFFF0000F0BF17
:10D61000F0B546464F46C0B48DB004000D0000F092
:10D62000BDF8284B060098461B780F005BB201330B
:10D6300032D022002B002000290003F0DDFB8146C0
:10D64000002829D120002900FFF746FF00221E4BA9
:10D6500000F082FF00281FD0012302931B4B1C48BF
:10D6600003934B46069407950A930494059500F09E
:10D67000CDFD43461B78089009915BB2022B12D076
:10D6800002A800F0C1FD00280DD00A9B0193002BD9
:10D6900011D10898099901E0300039000DB00CBC97
:10D6A00090469946F0BD03F0E9FC212303600A9BF4
:10D6B0000193002BEDD003F0E1FC0A9B0193036082
:10D6C000E7E7C0469D2000200000F03FD83502006B
:10D6D0005827020010B500F047FA10BDF0B54646D5
:10D6E0004F46C0B48DB004000D0000F0F9FA294B8C
:10D6F000009001911B785BB29846013312D0220052
:10D700002B002000290003F077FB8146002809D177
:10D710000026002732003B002000290000F008FF0F
:10D72000002806D1009801990DB00CBC904699468E
:10D73000F0BD01230293184B0694079503934B46C3
:10D740000A93434604940595002B15D03B00320004
:10D750003000390002F05EF9434608900991022B2F
:10D760000CD103F08BFC212303600A9B0093002B58
:10D770000AD108980999D7E70896099702A800F0F6
:10D7800043FD0028F1D1ECE703F078FC0A9B0093FD
:10D790000360EEE79D200020E0350200F0B557461B
:10D7A0004E464B005B089A46C0B4CD4B87B006008E
:10D7B0000F0089469A4512DDCA4B5344034322D0D9
:10D7C00002000B0002F0C4FF0B00020002F022F97D
:10D7D0000300180007B00CBC91469A46F0BDC24B3E
:10D7E0009A4524DCC14B9A4500DD0CE1C04AC14B8F
:10D7F00001F0E4FD0022C04B00F0AEFE002816D080
:10D8000033003900E5E7BD4ABD4B02F027FDBD4AB4
:10D8100004000D00BC4B3000390002F01FFD0B006E
:10D8200002002900200001F0C9FD0300D1E730000B
:10D830003900FFF751FE02000B000020AE4902F054
:10D8400087FF0022B14B02F009FD04000D00B04A31
:10D85000B04B02F003FDB04AB04B01F0AFFD220027
:10D860002B0002F0FBFCAE4AAE4B02F071FF22002F
:10D870002B0002F0F3FCAC4AAC4B01F09FFD220000
:10D880002B0002F0EBFCAA4AAA4B02F061FF220037
:10D890002B0002F0E3FCA84AA84B01F08FFD220008
:10D8A0002B0002F0DBFCA64A02900391A54B20005E
:10D8B000290002F0D3FCA44AA44B02F049FF220045
:10D8C0002B0002F0CBFCA24AA24B01F077FD220014
:10D8D0002B0002F0C3FCA04AA04B02F039FF22004B
:10D8E0002B0002F0BBFC844B002201F067FD04908A
:10D8F00005912000290000F0F3F9994B06000F0074
:10D900009A4563DC0B000298039900220092019370
:10D91000049A059B02F07EF83200029003913B00CE
:10D920003000390001F04AFD02000B000298039913
:10D9300002F094FC029003910098019902000B0000
:10D9400002F08CFC02000B002000290002F000FF16
:10D95000009A019B04000D003000390001F02EFDFB
:10D9600002000B002000290002F054F802000B0016
:10D9700001F024FD02000B006248634902F0E8FE5A
:10D9800002000B000298039902F0E2FE04000D0071
:10D990000098019902000B0001F010FD02000B003D
:10D9A0005648704902F0D4FE02000B002000290006
:10D9B00002F0CEFE02000B0050486A4902F0C8FE99
:10D9C0004B46002B00DC84E0030002E7049A059B31
:10D9D0000298039902F01EF832003B0002F03EFC70
:10D9E00032003B0001F0EAFC02000B0001F0E6FC13
:10D9F000444A454B02F0ACFE02000B003F48404950
:10DA000002F0A6FEDCE702000B0002F027FC040097
:10DA10000D003F4A3F4B02F021FC3F4A3F4B01F0D3
:10DA2000CDFC22002B0002F019FC3D4A3D4B02F0D8
:10DA30008FFE22002B0002F011FC3B4A3B4B01F011
:10DA4000BDFC22002B0002F009FC394A394B02F0E0
:10DA50007FFE22002B0002F001FC374A374B01F019
:10DA6000ADFC22002B0002F0F9FB354A0090019139
:10DA7000344B2000290002F0F1FB334A334B02F013
:10DA800067FE22002B0002F0E9FB314A314B01F026
:10DA900095FC22002B0002F0E1FB2F4A2F4B02F0F5
:10DAA00057FE22002B0002F0D9FB0022124B01F09E
:10DAB00085FC02000B000098019901F0ABFF3200D9
:10DAC0003B0002F0CBFB3B00320001F077FC03008F
:10DAD0007FE68022120694460300614479E6C04640
